:03000000020026D5
:0C002600787FE4F6D8FD75812A02006D99
:0B026F00EF1FAC0670011E4C70F62261
:09028500B2957F0A7E0002026FAF
:0302B200C29522D0
:10000300D3EF9400EE940040147D6E7C00ED1D70E0
:0D001300011CED4C70F7EF1F70E61E80E33E
:0100200022BD
:1001F600D2AFD2ACD2AB758920E4F587759850752D
:080206008DFD758BFDD28E22E7
:07028E00E4FFFE20A0010FB8
:010295002246
:0C0262007F147E147DF8DDFEDEFADFF66E
:01026E00226D
:10020E00E4F528F52920A00B12026220A005F5289E
:06021E00752901AF292241
:1001D800D3EF9400EE940040147D767C00ED1D7002
:0D01E800011CED4C70F7EF1F70E61E80E368
:0101F50022E7
:07029600E4FFFE30A2010F9E
:01029D00223E
:0B027A00EF1FAC0670011E4C70F62256
:10025000C2A17F507EC312027AD2A17F507EC30218
:02026000027A20
:10019100060B6669726521000511626F64790003BF
:0C01A100086E6F0002160000021800003B
:0602A6001202240201F621
:1001B7001202A61202968E168F17E51764014516CE
:1001C70070F1FB7A0079111200F5E4F516F5178046
:0101D700E93E
:10012E0041542B435343533D2247534D220D0A0056
:10013E0041542B434D47463D310D0A0041542B434C
:10014E004D47533D22313336373636303433333420
:04015E00220D0A0064
:0901AD00071A616263313233006C
:10022400758920758DFD758BFDD28EC29FD29ED2AD
:060234009CD2AFD2AC2207
:0900B2007BFF12023A7F037E007D
:0400BB008E248F25DB
:1000BF00E4F526F527C3E5279525E5269524502554
:1000CF00E4F583F582AF82AE83E4FCFD7BFF7AFF1C
:1000DF00F9F8D312017B4003A380EA0527E52770C7
:0500EF00D4052680D0BD
:0100F40022E9
:030023000202AC2A
:0602AC008599A0C2983202
:08029E008F993099FDC29922ED
:10023A001201626010F5993099FDC299740129F989
:06024A00E43AFA80EB2209
:1000F5008B218A2289237A01792E1200B27A01791D
:100105003E1200B27BFF7A01794A12023A7F057EE0
:10011500001200BBAB21AA22A92312023A7F1A12B0
:09012500029E7F0A7E000200BB6D
:100032000201B7E493A3F8E493A34003F68001F22C
:1000420008DFF48029E493A3F85407240CC8C333CF
:10005200C4540F4420C8834004F456800146F6DF9E
:10006200E4800B0102040810204080900191E47E9C
:10007200019360BCA3FF543F30E509541FFEE49393
:10008200A360010ECF54C025E060A840B8E493A35A
:10009200FAE493A3F8E493A3C8C582C8CAC583CA85
:1000A200F0A3C8C582C8CAC583CADFE9DEE780BE3D
:0101B6000048
:10016200BB010689828A83E0225002E722BBFE029B
:09017200E32289828A83E49322CE
:10017B00EB9FF5F0EA9E42F0E99D42F0EC6480C8FB
:06018B0064809845F0229B
:00000001FF
