:03000000020026D5
:0C002600787FE4F6D8FD75811502006DAE
:0B025200EF1FAC0670011E4C70F6227E
:09027200B2957F0A7E00020252DF
:0302A100C29522E1
:10000300D3EF9400EE940040147D6E7C00ED1D70E0
:0D001300011CED4C70F7EF1F70E61E80E33E
:0100200022BD
:1001CE00D2AFD2ACD2AB758920E4F5877598507555
:0801DE008DFD758BFDD28E2210
:10018B0020A0147F027E0012000320A00A759901A3
:10019B007FC87E0012000330980885991585159944
:0501AB00C298AF15220F
:0C0238007F147E147DF8DDFEDEFADFF698
:010244002297
:1001E600E4F513F51420A00B12023820A005F51330
:0801F600751401AE13AF1422D1
:1001B000D3EF9400EE940040147D767C00ED1D702A
:0D01C000011CED4C70F7EF1F70E61E80E390
:0101CD00220F
:0D02450030A20512027B80F812028480F3C3
:0B025D00EF1FAC0670011E4C70F62273
:09027B00C2A07F507EC302025DA7
:09028400D2A07F507EC302025D8E
:060295001201FE0201CE81
:0E022A0012029512018BBF01FA12027B80F5C1
:1000F50041542B435343533D2247534D220D0A0090
:1001050041542B434D47463D310D0A0041542B4385
:100115004D47533D22313331303436313039323564
:04012500220D0A009D
:09026800070861626331323300C2
:1001FE00758920758DFD758BFDD28EC29FD29ED2D4
:06020E009CD2AFD2AC222D
:0900B2007BFF1202147F037E00A3
:0400BB008E0F8F1005
:1000BF00E4F511F512C3E5129510E511950F5025D2
:1000CF00E4F583F582AF82AE83E4FCFD7BFF7AFF1C
:1000DF00F9F8D31201754003A380EA0512E51270F7
:0500EF00D4051180D0D2
:0100F40022E9
:0300230002029B3B
:06029B008599A0C2983213
:08028D008F993099FDC29922FE
:1002140012015C6010F5993099FDC299740129F9B5
:06022400E43AFA80EB222F
:100129007A0079F51200B27A0179051200B27BFFE3
:100139007A0179111202147F057E001200BB7B003F
:100149007A0079081202147F1A12028D7F0F7E003D
:030159000200BBE6
:1000320002022AE493A3F8E493A34003F68001F2B8
:1000420008DFF48029E493A3F85407240CC8C333CF
:10005200C4540F4420C8834004F456800146F6DF9E
:10006200E4800B0102040810204080900268E47EC4
:10007200019360BCA3FF543F30E509541FFEE49393
:10008200A360010ECF54C025E060A840B8E493A35A
:10009200FAE493A3F8E493A3C8C582C8CAC583CA85
:1000A200F0A3C8C582C8CAC583CADFE9DEE780BE3D
:01027100008C
:10015C00BB010689828A83E0225002E722BBFE02A1
:09016C00E32289828A83E49322D4
:10017500EB9FF5F0EA9E42F0E99D42F0EC6480C801
:0601850064809845F022A1
:00000001FF
