:03000000020026D5
:0C002600787FE4F6D8FD75811502006DAE
:10022A001201FE1201CE12018BBF01FA12027E8068
:01023A00F5CE
:0B025500EF1FAC0670011E4C70F6227B
:09027500B2957F0A7E00020255D9
:03029E00C29522E4
:10000300D3EF9400EE940040147D767C00ED1D70D8
:0D001300011CED4C70F7EF1F70E61E80E33E
:0100200022BD
:0D023B0030A20512027E80F812028780F3C7
:0B026000EF1FAC0670011E4C70F62270
:09027E00C2A07F507EC3020260A1
:09028700D2A07F507EC302026088
:1001B000D3EF9400EE940040147D6E7C00ED1D7032
:0D01C000011CED4C70F7EF1F70E61E80E390
:0101CD00220F
:1001CE00D2AFD2ACD2AB758920E4F5877598507555
:0801DE008DFD758BFDD28E2210
:10018B0020A0147F027E001201B020A00A759901F5
:10019B007FC87E001201B030980885991585159996
:0501AB00C298AF15220F
:0C0248007F147E147DF8DDFEDEFADFF688
:010254002287
:1001E600E4F513F51420A00B12024820A005F51320
:0801F600751401AE13AF1422D1
:1000F50041542B435343533D2247534D220D0A0090
:1001050041542B434D47463D310D0A0041542B4385
:100115004D47533D22313331303436313039323564
:04012500220D0A009D
:09026B00070861626331323300BF
:1001FE00758920758DFD758BFDD28EC29FD29ED2D4
:06020E009CD2AFD2AC222D
:0900B2007BFF1202147F037E00A3
:0400BB008E0F8F1005
:1000BF00E4F511F512C3E5129510E511950F5025D2
:1000CF00E4F583F582AF82AE83E4FCFD7BFF7AFF1C
:1000DF00F9F8D31201754003A380EA0512E51270F7
:0500EF00D4051180D0D2
:0100F40022E9
:030023000202983E
:060298008599A0C2983216
:080290008F993099FDC29922FB
:1002140012015C6010F5993099FDC299740129F9B5
:06022400E43AFA80EB222F
:100129007A0079F51200B27A0179051200B27BFFE3
:100139007A0179111202147F057E001200BB7B003F
:100149007A0079081202147F1A1202907F0F7E003A
:030159000200BBE6
:1000320002022AE493A3F8E493A34003F68001F2B8
:1000420008DFF48029E493A3F85407240CC8C333CF
:10005200C4540F4420C8834004F456800146F6DF9E
:10006200E4800B010204081020408090026BE47EC1
:10007200019360BCA3FF543F30E509541FFEE49393
:10008200A360010ECF54C025E060A840B8E493A35A
:10009200FAE493A3F8E493A3C8C582C8CAC583CA85
:1000A200F0A3C8C582C8CAC583CADFE9DEE780BE3D
:010274000089
:10015C00BB010689828A83E0225002E722BBFE02A1
:09016C00E32289828A83E49322D4
:10017500EB9FF5F0EA9E42F0E99D42F0EC6480C801
:0601850064809845F022A1
:00000001FF
