:03000000020026D5
:0C002600787FE4F6D8FD75811502006DAE
:1001460041542B435343533D2247534D220D0A003E
:1001560041542B434D47463D310D0A0041542B4334
:100166004D47533D22313331303436313039323513
:04017600220D0A004C
:0900190007086162633132330013
:10000300758920758DFD758BFDD28EC29FD29ED2D0
:060013009CD2AFD2AC222A
:030023000201DEF9
:0601DE008599A0C29832D1
:0801D6008F993099FDC29922B6
:1001A90012017A6010F5993099FDC299740129F903
:0601B900E43AFA80EB229B
:090103007BFF1201A97F037E00BD
:04010C008E128F13AD
:10011000E4F514F515C3E5159513E514951250256E
:10012000E4F583F582AF82AE83E4FCFD7BFF7AFFCA
:10013000F9F8D31201934003A380EA0515E5157081
:05014000D4051480D07D
:010145002297
:1000B200E4F50FF510751103120003E51145106008
:1000C2003D7A0179461201037A0179561201037BC6
:1000D200FF7A0179621201A97F057E0012010C7B71
:1000E200007A0079081201A97F1A1201D67F0F7EC9
:1000F2000012010CE511151170C1151080BD02012D
:01010200BF3D
:0B01CB00EF1FAC0670011E4C70F62206
:0C01BF00B2957F0A7E001201CBB295229F
:100032000200B2E493A3F8E493A34003F68001F232
:1000420008DFF48029E493A3F85407240CC8C333CF
:10005200C4540F4420C8834004F456800146F6DF9E
:10006200E4800B0102040810204080900019E47E15
:10007200019360BCA3FF543F30E509541FFEE49393
:10008200A360010ECF54C025E060A840B8E493A35A
:10009200FAE493A3F8E493A3C8C582C8CAC583CA85
:1000A200F0A3C8C582C8CAC583CADFE9DEE780BE3D
:0100220000DD
:10017A00BB010689828A83E0225002E722BBFE0283
:09018A00E32289828A83E49322B6
:10019300EB9FF5F0EA9E42F0E99D42F0EC6480C8E3
:0601A30064809845F02283
:00000001FF
