:03000000020026D5
:0C002600787FE4F6D8FD75811402006DAF
:1000F50041542B435343533D2247534D220D0A0090
:1001050041542B434D47463D310D0A0041542B4385
:100115004D47533D22313331303436313039323564
:04012500220D0A009D
:09024900070861626331323300E1
:1001E600758920758DFD758BFDD28EC29FD29ED2EC
:0601F6009CD2AFD2AC2246
:0900B2007BFF1201FC7F037E00BC
:0400BB008E0F8F1005
:1000BF00E4F511F512C3E5129510E511950F5025D2
:1000CF00E4F583F582AF82AE83E4FCFD7BFF7AFF1C
:1000DF00F9F8D31201754003A380EA0512E51270F7
:0500EF00D4051180D0D2
:0100F40022E9
:0300230002027660
:060276008599A0C2983238
:08026E008F993099FDC299221D
:1001FC0012015C6010F5993099FDC299740129F9CE
:06020C00E43AFA80EB2247
:100129007A0079F51200B27A0179051200B27BFFE3
:100139007A0179111201FC7F057E001200BB7B0058
:100149007A0079081201FC7F1A12026E7F0F7E0075
:030159000200BBE6
:10021200E4F5141201E61201CE12018BBF01FA12AB
:04022200025C80F505
:0B023300EF1FAC0670011E4C70F6229D
:09025300B2957F0A7E000202331D
:03027C00C2952206
:10000300D3EF9400EE940040147D767C00ED1D70D8
:0D001300011CED4C70F7EF1F70E61E80E33E
:0100200022BD
:0D02260030A20512025C80F812026580F320
:0B023E00EF1FAC0670011E4C70F62292
:09025C00C2A07F507EC302023EE5
:09026500D2A07F507EC302023ECC
:1001B000D3EF9400EE940040147D6E7C00ED1D7032
:0D01C000011CED4C70F7EF1F70E61E80E390
:0101CD00220F
:1001CE00D2AFD2ACD2AB758920E4F5877598507555
:0801DE008DFD758BFDD28E2210
:10018B0020A0147F027E001201B020A00A759901F5
:10019B007FC87E001201B03098088599138513999A
:0501AB00C298AF132211
:10003200020212E493A3F8E493A34003F68001F2D0
:1000420008DFF48029E493A3F85407240CC8C333CF
:10005200C4540F4420C8834004F456800146F6DF9E
:10006200E4800B0102040810204080900249E47EE3
:10007200019360BCA3FF543F30E509541FFEE49393
:10008200A360010ECF54C025E060A840B8E493A35A
:10009200FAE493A3F8E493A3C8C582C8CAC583CA85
:1000A200F0A3C8C582C8CAC583CADFE9DEE780BE3D
:0102520000AB
:10015C00BB010689828A83E0225002E722BBFE02A1
:09016C00E32289828A83E49322D4
:10017500EB9FF5F0EA9E42F0E99D42F0EC6480C801
:0601850064809845F022A1
:00000001FF
