:030000000205D521
:0C05D500787FE4F6D8FD75818F02061CCB
:10096600C0F9A4B0999282F880908883C6A1868E39
:0909760089C7C8C18CA3BFFFFFB3
:1003E800C10002460000023F0000016B00016A00E4
:1003F8000168000169040153000121000145000161
:100408002200014900012300014A00012500014F93
:1004180000023C0014012400016600015801024B4F
:100428000000026100000226000002280000022AE3
:10043800000002300000025A0064025100640254B5
:1004480000640256006401420001480001440001B2
:100458003E00014100C101046C0808080801500071
:100468000167002020703132333430303030303082
:100478003030303030303030303030303030303074
:100488003030303030300537344310100105323405
:0404980043101001FC
:10097F00758911E4F58CF58A758DF8758B30D2A9D0
:07098F00D2ABD28ED2AF22E1
:03000B00020003ED
:03000300D20032F6
:03001B0002079346
:10079300C0E0C0D0758DF8758B300540E540700220
:1007A300053FC39490E53F9401401F753F0075409A
:1007B30000D2B700000000000000000000000000AD
:0F07C3000000000000000000C2B7D0D0D0E0322C
:1008E000EF75F00A8475F00A8485F02CEF75F00A34
:1008F0008485F02DED75F00A8475F00A8485F02E5C
:09090000ED75F00A8485F02F2248
:0D000E0075CBFB75CAB4D2ADD2AFD2CA22F9
:03002B0002053C8F
:10053C00C0E0C083C082C0D0C2CF200167E5501498
:10054C00601C14602D14603C2403704AE52C900947
:10055C006693F580C2A4D2A5D2A6D2A78038E52D89
:10056C0090096693F580D2A4C2A5D2A6D2A7C28761
:10057C008024E52E90096693F580D2A4D2A5C2A65C
:10058C00D2A78012E52F90096693F580D2A4D2A54C
:10059C00D2A6C2A7C287E550C3940350040550806D
:1005AC0003755000E567C39402500405678011750C
:1005BC006700E541C3940350040541800375410075
:0905CC00D0D0D082D083D0E032FF
:10049D001202B514603014605014607024036003B0
:1004AD0002053B30B309E4F526F5277542012230EC
:1004BD00B3FDD28C20B3FDC28C1207448561268515
:1004CD006227E4F5422230B409E4F528F529754890
:1004DD00012230B4FDD28C20B4FDC28C12074485AC
:1004ED006128856229E4F5482230B509E4F52AF53D
:1004FD002B753E012230B5FDD28C20B5FDC28C127C
:10050D00074485612A85622BE4F53E2230B609E465
:10051D00F530F5317544012230B6FDD28C20B6FD93
:0F052D00C28C120744856130856231E4F54422A7
:0D09B700EFD3940040077EC8DEFE1F80F3E2
:0109C4002210
:10094D00E4FEEF339291EF25E0FFD294A293E433CE
:08095D004207C2940EBE08EA35
:01096500226F
:02092E00AD0713
:10093000C2907F0A1209B7AF0512094DE4FF1209F0
:0C0940004DAD077F0A1209B7D290AF0539
:01094C002288
:10099600C29012094DAC07AF0512094DD290AF04B3
:0109A600222E
:060811008B128A1389140A
:10081700C29012094D7516008F17E4FDFCC3ED95C4
:1008270015EC9400501AE4FF12094DAB12AA13A954
:10083700148D828C83EF1202CE0DBD00010C80DD7A
:04084700D290AF1785
:01084B00228A
:07084C007B007510057F2AF7
:060853008B0D8A0E890FD7
:10085900C29012094DAD07E4FCECC395105018ABDA
:100869000D050FE50FAA0E7002050E14F91202B557
:0B087900FF12094D0C80E2D290AF0589
:010884002251
:1009A700C2957D0F7F20120996D2957F8C0209B7D9
:060885008B188A19891A84
:10088B00E4FB7F0712092E8F59E55930E612C2950A
:10089B00AB18AA19A91A7515207F611208117B01D3
:0908AB00AD597F27120996AF0335
:0108B4002221
:1008B5008B098A0A890BC2957A00793712084CABE5
:1008C50009AA0AA90B7510207FA01208537D0E7F77
:0B08D50020120996D2957F640209B73B
:1007D200C295D290C2947B007A0079377510057F5A
:1007E200301208537A00793212084CE4FD7F21124C
:1007F20009967F221209967F261209967F251209F1
:0F080200967D207F31120996D2957FF40209B7B7
:030909007F05FE69
:10090C008E098F0AD3EF9400EE940040147D327C54
:10091C0000ED1D70011CED4C70F7EF1F70E61E8092
:01092C00E3E7
:01092D0022A7
:10074400AF8CEFFEAD8A7C00E42DF547EC3EF54618
:10075400E4F58CF58AAC46AD471201D97B297A5C65
:1007640079EF783F12002EE4FBFA79C8784212013F
:10077400371202128E618F62C3E56294F4E56194CC
:0F078400015003300008C20075610375627822CE
:1006D700E52164016012E5226401600CE5236401F1
:1006E7006006E5256401704CE521B40108C29778DE
:1006F7007576418006D297E47875F6E522B401084D
:10070700C296787676428006D296E47876F6E52326
:10071700B40108C2A0787776438006D2A0E4787740
:10072700F6E525B40107C2A17878764422D2A1E480
:0D0737007878F622D296D297D2A0D2A122D5
:1002FE00C3E529953DE528953C501F755C01E55CED
:10030E0064017025120909E5217005056875210142
:10031E00E4F55C755D01F545800FE54570081568DF
:10032E007875F6754501E4F521C3E527953DE5267B
:10033E00953C501F755E01E55E640170251209093A
:10034E00E52270050568752201E4F55E755F01F51D
:10035E0049800FE549700815687876F6754901E40D
:10036E00F522C3E52B953DE52A953C50227560019B
:10037E00E560640170287F05FE12090CE523700507
:10038E000568752301E4F560756301F54A800FE594
:10039E004A700815687877F6754A01E4F523C3E5C7
:1003AE0031953DE530953C5021756401E56464015D
:1003BE0070277F05FE12090CE52570050568752569
:1003CE0001E4F564756501F54F22E54F7008156877
:0A03DE007878F6754F01E4F525224A
:100661001207D212097F12000E78707601E569C374
:1006710095684006E5699568F553E56875F00A8463
:100681007871F6E56875F00A8408A6F0E55375F00F
:100691000A1202937873F6E55375F00A120293AFCA
:1006A100F07874A6070508E508B4020BE4F508FB29
:1006B1007A0079701208B57DFF7F2712099612061C
:1006C100D71202FE7B007A00794112049DAD53AF2F
:0606D100691208E08097A9
:10002E00EC4D6011E8497017ED33EC3304600DE4CC
:10003E00FCFFFEFD22E933E8330470F802027E1263
:10004E00024958046009E4CC248150062850090264
:10005E000288284003020285C0E0EB4A7044B98052
:10006E0006D0E0FB020274EF4E701CBD8008EBFF61
:10007E00EAFEE9FD80EBE98DF0A4FEE5F002011742
:10008E00E9CDF9EAFEEBFFEF89F0A4FCE5F0CE89AD
:10009E00F0A42EFFE435F0CD89F0A42DFEE435F06A
:1000AE008067EF4E7005BD80D780C3EF8BF0A4AC98
:1000BE00F0EE8BF0A42CFCE435F0F8EF8AF0A42CD3
:1000CE00E5F038FCE433CB8DF0A42CFCE5F03BF8E6
:1000DE00EE8AF0A42CFCE5F038F8E433CF89F0A4D6
:1000EE002CFCE5F038CF3400CE89F0A42FFFE5F0DC
:1000FE003EFEE433C98DF0A42EFEE5F039CD8AF034
:10010E00A42FFFE5F03EFEE43DFD33D0E0FB5007AB
:10011E000BBB000F020288EC2CFCEF33FFEE33FE1C
:06012E00ED33FD0202604A
:10013400020288EC5D046005E85904700302027E43
:10014400120249580460F6EC4860F2EC7004FDFEBB
:10015400FF22C860DB2481C85009C398600250069E
:100164000202859850CAF582E9294B4A7005AB8290
:1001740002027475F0007C1A7880C3EF9BEE9AED4E
:1001840099400DC3EF9BFFEE9AFEED99FDE842F016
:10019400DC23ACF0D0E0FFD0E0FED0E0FDAB822069
:1001A400E7101BEB60BAEC2CFCEF33FFEE33FEEDF3
:1001B40033FD020260E803F830E705C0F075F00093
:1001C400EF2FFFEE33FEED33FD40B830E7C280AAD7
:1001D40075F020800E75F010800575F0087D007EA6
:1001E400007F003392D530D5031202F0EC33401077
:1001F400EF33FFEE33FEED33FDEC33FCD5F0ED22AF
:0E020400E5F0247EA2D513CC92E7CDCEFF22EA
:10021200EDD2E7CD33EC3392D524814006E4FFFEE4
:10022200FDFC22FCE4CFCECDCC24E0501174FF8043
:10023200EDC3CC13CCCD13CDCE13CECF13CF0470E0
:07024200F030D5DE0202F0EE
:10024900E9D2E7C933E833F892D5EDD2E7CD33ECFB
:0702590033FC5002B2D52274
:10026000EC30E7100FBF000C0EBE00080DBD0004FF
:100270000BEB6014A2D5EB13FCED92E7FD2274FFAB
:10028000FCFDFEFF22E480F8A2D574FF13FC7D8004
:03029000E480EF18
:1005E100020661E493A3F8E493A34003F68001F2C9
:1005F10008DFF48029E493A3F85407240CC8C3331B
:10060100C4540F4420C8834004F456800146F6DFE9
:10061100E4800B01020408102040809003E8E47E8E
:10062100019360BCA3FF543F30E509541FFEE493DE
:10063100A360010ECF54C025E060A840B8E493A3A5
:10064100FAE493A3F8E493A3C8C582C8CAC583CAD0
:10065100F0A3C8C582C8CAC583CADFE9DEE780BE88
:01049C00005F
:10029300C2D530F707B2D563F0FF05F030E70CB2F3
:1002A300D5F4048463F0FF05F080018430D502F4B3
:0202B300042223
:1002B500BB010689828A83E0225002E722BBFE0247
:0902C500E32289828A83E493227A
:1002CE00F8BB010DE58229F582E5833AF583E8F066
:1002DE00225006E92582C8F622BBFE05E92582C812
:0202EE00F222FA
:0E02F000C3E49FFFE49EFEE49DFDE49CFC221F
:00000001FF
