:0300000002002ECD
:0C002E00787FE4F6D8FD75815102007562
:10038500C0F9A4B0999282F880908883C6A1868E20
:0903950089C7C8C18CA3BFFFFF9A
:10013400011C00011D04011900010800042E080817
:100144000808011800011B00202032303030303004
:10015400303030303030303030303030303030309B
:1001640030333035303030303030300512344310D5
:090174001001050D3443101001C7
:10031F00EF75F00A8475F00A8485F009EF75F00A1D
:10032F008485F00AED75F00A8475F00A8485F00B68
:09033F00ED75F00A8485F00C2232
:0D03D70075CBFB75CAB4D2ADD2AFD2CA222D
:03002B000200BA16
:1000BA00C0E0C083C082C0D0C2CFE51814601C144F
:1000CA00602D14603C2403704AE50990038593F57A
:1000DA0080C2A4D2A5D2A6D2A78038E50A90038509
:1000EA0093F580D2A4C2A5D2A6D2A7C2878024E55E
:1000FA000B90038593F580D2A4D2A5C2A6D2A7807D
:10010A0012E50C90038593F580D2A4D2A5D2A6C29B
:10011A00A7C287E518C3940350040518800375180D
:0A012A0000D0D0D082D083D0E032A4
:10039E00EF1FAA0670011E4A600B7D6EEDD394000E
:0503AE0040EE1D80F788
:0103B3002227
:10036A00D293E4FEEF339291EF25E0FFD294A29369
:0A037A00E4334207C2940EBE08EA05
:010384002256
:02000300AC0748
:10000500C2907F017E0012039EAF0412036AE4FFD3
:1000150012036AAC077F017E0012039ED290AF04E3
:0100250022B8
:1003C600C29012036AAC07AF0512036AD290AF045B
:0103D6002204
:060200008B258A268927E8
:10020600C29012036A7529008F2AE4FDFCC3ED959E
:10021600287480F86C98501AE4FF12036AAB25AA7A
:1002260026A9278D828C83EF1202930DBD00010C47
:0602360080DBD290AF2A2C
:01023C00229F
:0B023D007B007A0079127525057F30E8
:060248008B228A238924A9
:10024E00C29012036AAD07E4FCECC395255018ABBF
:10025E00220524E524AA237002052314F912027A3A
:0B026E00FF12036A0C80E2D290AF0583
:010279002262
:1003B400C2957D0F7F201203C6D2957F127E020262
:0203C400039E96
:0602EC008B218A22892308
:1002F200E4FB1203B47F071200038F1AE51A30E6FB
:1003020012C295AB21AA22A9237528207F6112026D
:0C031200007B01AD1A7F271203C6AF0369
:01031E0022BC
:1002B5008B2B8A2C892DC2957B007A0079127525A6
:1002C500057F2A12024812023DAB2BAA2CA92D75D7
:1002D50025207FA01202487D0E7F201203C6D295ED
:0702E5007F827E0002039EF0
:10017E00C295D290C294D29212023D7B007A00793F
:10018E000D7525057F2A120248E4FD7F211203C654
:10019E000D7F221203C61D7F251203C67D207F31DF
:1001AE001203C67D077F261203C6D2957FF47E0109
:0301BE0002039E9B
:100348008E1E8F1FD3EF9400EE940040147D6E7CB8
:1003580000ED1D70011CED4C70F7EF1F70E61E805C
:01036800E3B1
:010369002271
:1001C10012017E1203D7E508702CFB7A00793212F6
:1001D10002EC7832E6B4011608E675F00AA40826A6
:1001E100F51C08E675F00AA40826F5198008E478DC
:0F01F10032F6F51CF519AD19AF1D12031F80C7AB
:10003A000201C1E493A3F8E493A34003F68001F21A
:10004A0008DFF48029E493A3F85407240CC8C333C7
:10005A00C4540F4420C8834004F456800146F6DF96
:10006A00E4800B0102040810204080900134E47EF1
:10007A00019360BCA3FF543F30E509541FFEE4938B
:10008A00A360010ECF54C025E060A840B8E493A352
:10009A00FAE493A3F8E493A3C8C582C8CAC583CA7D
:1000AA00F0A3C8C582C8CAC583CADFE9DEE780BE35
:01017D000081
:10027A00BB010689828A83E0225002E722BBFE0282
:09028A00E32289828A83E49322B5
:10029300F8BB010DE58229F582E5833AF583E8F0A1
:1002A300225006E92582C8F622BBFE05E92582C84D
:0202B300F22235
:00000001FF
