:03000000020003F8
:0C000300787FE4F6D8FD75812102004AE8
:0502E70034431010017A
:0302EC0001080105
:0B02DC00C295D294C293D290D2A1220E
:07026B007F2012028E7F9636
:10027200E4FEEEC39F500B7DFADDFE7DFADDFE0E3D
:0202820080F00A
:010284002257
:10029F00E4FEEF339292EF25E0FFD293A291E43385
:0802AF004207C2930EBE08EAEB
:0102B7002224
:090285007D017F2112028E7F220F
:10028E00C29412029FAC07AF0512029FD294AF0424
:01029E00223D
:0C02CF00C29412029FE4FF12029FD2941E
:0102DB002200
:0601EE008B138A14891531
:1001F400C29412029FAD07E4FCECC395165017E4B9
:10020400FF12029FAB13AA14A9158C82758300EF09
:0A02140012010B0C80E3D294AF0539
:01021E0022BD
:0B01B4007BFF7A0279E77516057F2AB1
:0601BF008B138A14891560
:1001C500C29412029FAD07E4FCECC395165015AB23
:1001D50013AA14A9158C827583001200DEFF120282
:0801E5009F0C80E5D294AF05E8
:0101ED0022EF
:10024600C2951201B41202857D287F2512028E7D89
:10025600047F3112028E7D077F2612028E7D0F12D9
:05026600026BD295229D
:10012D008B178A188919C2957BFF7A0279E77516A4
:10013D00057F301201BF1201B4AB17AA18A91975AA
:10014D0016047FA01201BF1202857D0A7F241202C0
:10015D008E7D287F2512028E7D077F2612028E7DD1
:07016D000E12026BD2952275
:10021F002090FD7FFF12029F8F20300408300805C9
:10022F007FE112029FAD207F2712028ED290300500
:07023F00037F00227FFF2274
:10017400E5B020E03A7F14120272E5B020E030E5E9
:1001840008F4F50E7B007A00790E12012DC20812D4
:10019400021F7FFA120272120272D2A1120246E503
:1001A400B030E0FBE50825E0F5087003750801228E
:1002B800AC07AF041CEF600ED2A17FF4120272C229
:0702C800A112027280EC227A
:10008F001202DC1202467F071202CF8F20300611B8
:10009F007B007A00790A7516047F611201EE7509EB
:1000AF0001AD207F2712028EE50960DAE50AB4015F
:1000BF00057F021202B8E50AB402057F041202B8E6
:0F00CF00E4F5097FFA120272120272D2A180B711
:10000F0002008FE493A3F8E493A34003F68001F278
:10001F0008DFF48029E493A3F85407240CC8C333F2
:10002F00C4540F4420C8834004F456800146F6DFC1
:10003F00E4800B01020408102040809002ECE47E63
:10004F00019360BCA3FF543F30E509541FFEE493B6
:10005F00A360010ECF54C025E060A840B8E493A37D
:10006F00FAE493A3F8E493A3C8C582C8CAC583CAA8
:10007F00F0A3C8C582C8CAC583CADFE9DEE780BE60
:0102EF00000E
:1000DE00BB010CE58229F582E5833AF583E02250D7
:1000EE0006E92582F8E622BBFE06E92582F8E22221
:0D00FE00E58229F582E5833AF583E493223B
:10010B00F8BB010DE58229F582E5833AF583E8F02A
:10011B00225006E92582C8F622BBFE05E92582C8D6
:02012B00F222BE
:00000001FF
