:030000000200B546
:0C00B500787FE4F6D8FD7581200200FC85
:0B04C300EF1FAC0670011E4C70F6220B
:0904E300B2957F0A7E000204C3F9
:03051A00C2952265
:10000300D3EF9400EE940040147D6E7C00ED1D70E0
:0D001300011CED4C70F7EF1F70E61E80E33E
:0100200022BD
:10041E00D2AFD2ACD2AB758920E4F5877598507502
:08042E008DFD758BFDD28E22BD
:1003BE0020A0147F027E0012000320A00A7599016E
:1003CE007FC87E00120003309808859920852099F9
:0503DE00C298AF2022CF
:0C049C007F147E147DF8DDFEDEFADFF632
:0104A8002231
:10043600E4F51EF51F20A00B12049C20A005F51E56
:08044600751F01AE1EAF1F225D
:1003E300D3EF9400EE940040147D767C00ED1D70F5
:0D03F300011CED4C70F7EF1F70E61E80E35B
:0104000022D9
:0C04A90030A2067E007F018003E4FEFF0D
:0104B5002224
:0B04CE00EF1FAC0670011E4C70F62200
:0904EC00C2A07F507EC30204CEC1
:0904F500D2A07F507EC30204CEA8
:0D04B60041542B43495053454E443D350001
:10040100C3EE940040167D6E7C00ED1D70011CC38F
:0C041100EC940050F5EF1F70E71E80E433
:01041D0022BC
:07050600AE071FEE70FA22A0
:0E048E00C2ACC2998F993099FDC299D2AC22AE
:0602EC007BFF7A0479B6E5
:1002F200120026FF601112048E7F0512050674019A
:1003020029F9E43AFA80E97F051205067F0D120405
:100312008E7F051205067F0A12048E7FE87E030295
:020322000401D4
:100209001202EC7FE87E037D007C0012025D12027F
:10021900EC7FE87E037D007C0012025D1202EC7F18
:10022900E87E037D007C0012025D1202EC7FE87E0D
:10023900037D007C0012025D1202EC7FE87E037DE3
:10024900007C0012025D1202EC7FE87E037D007CD7
:040259000002025D40
:07050D00120209E4FEFF22C7
:1003240041542B435343533D2247534D220D0A005E
:1003340041542B434D47463D310D0A0041542B4354
:100344004D47533D22313331303436313039323533
:04035400220D0A006C
:0904D90007106162633132330047
:10044E00758920758DFD758BFDD28EC29FD29ED281
:06045E009CD2AFD2AC22DB
:0902A9007BFF1204647F037E0058
:0402B2008E178F18FC
:1002B600E4F519F51AC3E51A9518E51995175025A9
:1002C600E4F583F582AF82AE83E4FCFD7BFF7AFF23
:1002D600F9F8D312008E4003A380EA051AE51A70D6
:0502E600D4051980D0D1
:0102EB0022F0
:03002300020514BF
:060514008599A0C2983297
:0804FE008F993099FDC299228B
:100464001200266010F5993099FDC299740129F99A
:06047400E43AFA80EB22DD
:100358007A0379241202A97A0379341202A97BFF5D
:100368007A0379401204647F057E001202B27B0092
:100378007A0079101204647F1A1204FE7F0F7E003F
:030388000202B2BC
:0100210022BC
:1001410041542B43574D4F44453D310D0A00415415
:100151002B5253540D0A0041542B43574A41503DF1
:1001610022507472746F4E756C6C222C2261313284
:100171003334353637220D0A0041542B434950534D
:10018100544152543D22544350222C223139322EB3
:100191003136382E342E31222C353030300D0A00D4
:0D01A10041542B43495053454E443D34001A
:10038B008B1B8A1C891DAB1BAA1CA91D1200266086
:10039B0021547FF5993099FDC2997401251DF51DE6
:1003AB00E4351CF51C7F017E007D007C0012025D94
:0303BB0080D422C9
:1001AE007FE87E037D007C0012025D7BFF7A017981
:1001BE004112038B7FE87E037D007C0012025D7B83
:1001CE00FF7A01794F12038B7FD07E077D007C0072
:1001DE0012025D7BFF7A01795812038B7F107E2706
:1001EE007D007C0012025D7BFF7A01797A12038B0F
:0B01FE007FB87E0B7D007C0002025DDC
:10047A007BFF7A0179A112038B7FE87E037D007CE2
:04048A000002025D0D
:08025D008F0B8E0A8D098C083D
:10026500E4F50FF50EF50DF50CE47F0AFEFDFCAB8C
:100275000BAA0AA909A80812003FAB0FAA0EA90DDF
:10028500A80CC31200A4501BE4FAF9F8E50F2401E9
:10029500F50FEA350EF50EE9350DF50DE8350CF5DA
:0302A5000C80C604
:0102A8002233
:1000C10002050DE493A3F8E493A34003F68001F243
:1000D10008DFF48029E493A3F85407240CC8C33340
:1000E100C4540F4420C8834004F456800146F6DF0F
:1000F100E4800B01020408102040809004D9E47EC2
:10010100019360BCA3FF543F30E509541FFEE49303
:10011100A360010ECF54C025E060A840B8E493A3CA
:10012100FAE493A3F8E493A3C8C582C8CAC583CAF5
:10013100F0A3C8C582C8CAC583CADFE9DEE780BEAD
:0104E2000019
:10002600BB010689828A83E0225002E722BBFE02D8
:09003600E32289828A83E493220B
:10003F00E88FF0A4CC8BF0A42CFCE98EF0A42CFC60
:10004F008AF0EDA42CFCEA8EF0A4CDA8F08BF0A4DE
:10005F002DCC3825F0FDE98FF0A42CCD35F0FCEB3D
:10006F008EF0A4FEA9F0EB8FF0A4CFC5F02ECD3902
:0F007F00FEE43CFCEAA42DCE35F0FDE43CFC226F
:10008E00EB9FF5F0EA9E42F0E99D42F0EC6480C8E9
:06009E0064809845F02289
:1000A400EB9FF5F0EA9E42F0E99D42F0E89C45F0B2
:0100B4002229
:00000001FF
